:020000040800F2
:10000000008001209DAC0008A5820008A98200089C
:10001000AD820008B1820008B5820008000000002F
:10002000000000000000000000000000B98200088D
:10003000BD82000800000000C1820008C5820008DF
:10004000EDAC0008EDAC0008EDAC0008EDAC00082C
:10005000EDAC0008EDAC0008EDAC0008EDAC00081C
:10006000EDAC0008EDAC0008EDAC0008EDAC00080C
:10007000EDAC0008EDAC0008EDAC0008EDAC0008FC
:10008000EDAC0008EDAC0008EDAC0008EDAC0008EC
:10009000EDAC0008EDAC0008EDAC0008C98200082A
:1000A000EDAC0008EDAC0008EDAC0008EDAC0008CC
:1000B000EDAC0008FD82000801830008EDAC0008EB
:1000C000EDAC0008EDAC0008EDAC0008EDAC0008AC
:1000D000EDAC0008EDAC0008EDAC0008EDAC00089C
:1000E000EDAC0008EDAC0008EDAC0008EDAC00088C
:1000F000EDAC0008EDAC0008EDAC0008EDAC00087C
:10010000EDAC0008EDAC0008EDAC0008EDAC00086B
:10011000EDAC0008EDAC000805830008EDAC00086C
:10012000EDAC0008EDAC0008EDAC0008EDAC00084B
:10013000EDAC00080000000000000000EDAC00087D
:10014000EDAC0008EDAC0008EDAC0008EDAC00082B
:10015000EDAC0008EDAC0008EDAC0008EDAC00081B
:10016000EDAC0008EDAC0008EDAC0008EDAC00080B
:10017000EDAC0008EDAC000800000000000000003D
:04018000EDAC0008DA
:1001880010B5054C237833B9044B13B10448AFF3C9
:1001980000800123237010BD8800002000000000AB
:1001A8005CD5000808B5034B1BB103490348AFF3FE
:1001B800008008BD000000008C0000205CD500080D
:1001C80081F0004102E000BF83F0004330B54FEA00
:1001D80041044FEA430594EA050F08BF90EA020F6D
:1001E8001FBF54EA000C55EA020C7FEA645C7FEA00
:1001F800655C00F0E2804FEA5454D4EB5555B8BF23
:100208006D420CDD2C4480EA020281EA030382EA93
:10021800000083EA010180EA020281EA0303362D25
:1002280088BF30BD11F0004F4FEA01314FF4801CF8
:100238004CEA113102D0404261EB410113F0004F0A
:100248004FEA03334CEA133302D0524263EB4303C1
:1002580094EA050F00F0A780A4F10104D5F1200E5F
:100268000DDB02FA0EFC22FA05F2801841F10001BA
:1002780003FA0EF2801843FA05F359410EE0A5F18E
:1002880020050EF1200E012A03FA0EFC28BF4CF0BF
:10029800020C43FA05F3C01851EBE37101F0004575
:1002A80007D54FF0000EDCF1000C7EEB00006EEB82
:1002B8000101B1F5801F1BD3B1F5001F0CD349080C
:1002C8005FEA30004FEA3C0C04F101044FEA445263
:1002D80012F5800F80F09A80BCF1004F08BF5FEAEA
:1002E800500C50F1000041EB045141EA050130BDCA
:1002F8005FEA4C0C404141EB0101013C28BFB1F5DC
:10030800801FE9D291F0000F04BF01460020B1FA26
:1003180081F308BF2033A3F10B03B3F120020CDAF9
:100328000C3208DD02F1140CC2F10C0201FA0CF0D7
:1003380021FA02F10CE002F11402D8BFC2F1200C3C
:1003480001FA02F120FA0CFCDCBF41EA0C019040F2
:10035800E41AA2BF01EB0451294330BD6FEA04043B
:100368001F3C1CDA0C340EDC04F11404C4F1200226
:1003780020FA04F001FA02F340EA030021FA04F338
:1003880045EA030130BDC4F10C04C4F1200220FA8F
:1003980002F001FA04F340EA0300294630BD21FACD
:1003A80004F0294630BD94F0000F83F4801306BF93
:1003B80081F480110134013D4EE77FEA645C18BF87
:1003C8007FEA655C29D094EA050F08BF90EA020F1E
:1003D80005D054EA000C04BF1946104630BD91EA16
:1003E800030F1EBF0021002030BD5FEA545C05D119
:1003F8004000494128BF41F0004130BD14F5800458
:100408003CBF01F5801130BD01F0004545F0FE41CB
:1004180041F470014FF0000030BD7FEA645C1ABF00
:10042800194610467FEA655C1CBF0B46024650EA37
:10043800013406BF52EA033591EA030F41F4002163
:1004480030BD00BF90F0000F04BF0021704730B5E9
:100458004FF4806404F132044FF000054FF00001BE
:1004680050E700BF90F0000F04BF0021704730B57F
:100478004FF4806404F1320410F0004548BF404254
:100488004FF000013EE700BF42004FEAE2014FEAA9
:1004980031014FEA02701FBF12F07F4393F07F4F84
:1004A80081F06051704732F07F4208BF704793F087
:1004B8007F4F04BF41F40021704730B54FF460749A
:1004C80001F0004521F000411CE700BF50EA01029D
:1004D80008BF704730B54FF000050AE050EA010246
:1004E80008BF704730B511F0004502D5404261EBB6
:1004F80041014FF4806404F132045FEA915C3FF4F7
:10050800D8AE4FF003025FEADC0C18BF03325FEA93
:10051800DC0C18BF033202EBDC02C2F1200300FA44
:1005280003FC20FA02F001FA03FE40EA0E0021FA69
:1005380002F11444BDE600BF70B54FF0FF0C4CF457
:10054800E06C1CEA11541DBF1CEA135594EA0C0F09
:1005580095EA0C0F00F0DEF82C4481EA030621EA44
:100568004C5123EA4C5350EA013518BF52EA03357F
:1005780041F4801143F4801338D0A0FB02CE4FF031
:100588000005E1FB02E506F00042E0FB03E54FF061
:100598000006E1FB03569CF0000F18BF4EF0010E59
:1005A800A4F1FF04B6F5007F64F5407404D25FEA55
:1005B8004E0E6D4146EB060642EAC62141EA555108
:1005C8004FEAC52040EA5E504FEACE2EB4F1FD0C4A
:1005D80088BFBCF5E06F1ED8BEF1004F08BF5FEAC8
:1005E800500E50F1000041EB045170BD06F000467A
:1005F80046EA010140EA020081EA0301B4EB5C0427
:10060800C2BFD4EB0C0541EA045170BD41F480111E
:100618004FF0000E013C00F3AB8014F1360FDEBF43
:10062800002001F0004170BDC4F10004203C35DA1F
:100638000C341BDC04F11404C4F1200500FA05F3A2
:1006480020FA04F001FA05F240EA020001F0004243
:1006580021F0004110EBD37021FA04F642EB0601B9
:100668005EEA430E08BF20EAD37070BDC4F10C04E3
:10067800C4F1200500FA04F320FA05F001FA04F2A7
:1006880040EA020001F0004110EBD37041F1000193
:100698005EEA430E08BF20EAD37070BDC4F120059E
:1006A80000FA05F24EEA020E20FA04F301FA05F206
:1006B80043EA020321FA04F001F0004121FA04F2AE
:1006C80020EA020000EBD3705EEA430E08BF20EA7E
:1006D800D37070BD94F0000F0FD101F000464000B8
:1006E80041EB010111F4801F08BF013CF7D041EA3A
:1006F800060195F0000F18BF704703F0004652003E
:1007080043EB030313F4801F08BF013DF7D043EA0E
:100718000603704794EA0C0F0CEA135518BF95EAC4
:100728000C0F0CD050EA410618BF52EA4306D1D14B
:1007380081EA030101F000414FF0000070BD50EA6A
:10074800410606BF1046194652EA430619D094EAF4
:100758000C0F02D150EA013613D195EA0C0F05D1DE
:1007680052EA03361CBF104619460AD181EA030132
:1007780001F0004141F0FE4141F470014FF00000EA
:1007880070BD41F0FE4141F4780170BD70B54FF085
:10079800FF0C4CF4E06C1CEA11541DBF1CEA135505
:1007A80094EA0C0F95EA0C0F00F0A7F8A4EB0504E7
:1007B80081EA030E52EA03354FEA013100F08880DE
:1007C8004FEA03334FF0805545EA131343EA1263A7
:1007D8004FEA022245EA111545EA10654FEA00265C
:1007E8000EF000419D4208BF964244F1FD0404F515
:1007F800407402D25B084FEA3202B61A65EB030571
:100808005B084FEA32024FF480104FF4002CB6EB2D
:10081800020E75EB030E22BFB61A754640EA0C00AD
:100828005B084FEA3202B6EB020E75EB030E22BFED
:10083800B61A754640EA5C005B084FEA3202B6EB2E
:10084800020E75EB030E22BFB61A754640EA9C00ED
:100858005B084FEA3202B6EB020E75EB030E22BFBD
:10086800B61A754640EADC0055EA060E18D04FEA7B
:10087800051545EA16754FEA06164FEAC30343EA1B
:1008880052734FEAC2025FEA1C1CC0D111F4801FE8
:100898000BD141EA00014FF000004FF0004CB6E7E1
:1008A80011F4801F04BF01430020B4F1FD0C88BF80
:1008B800BCF5E06F3FF6AFAEB5EB030C04BFB6EB8B
:1008C800020C5FEA500C50F1000041EB045170BD7E
:1008D8000EF0004E4EEA113114EB5C04C2BFD4EBAB
:1008E8000C0541EA045170BD41F480114FF0000E2F
:1008F800013C90E645EA060E8DE60CEA135594EAAB
:100908000C0F08BF95EA0C0F3FF43BAF94EA0C0FAD
:100918000AD150EA01347FF434AF95EA0C0F7FF422
:1009280025AF104619462CE795EA0C0F06D152EA76
:1009380003353FF4FDAE1046194622E750EA41065A
:1009480018BF52EA43067FF4C5AE50EA41047FF46B
:100958000DAF52EA43057FF4EBAE12E74FF0FF3CD0
:1009680006E000BF4FF0010C02E000BF4FF0010CA1
:100978004DF804CD4FEA410C7FEA6C5C4FEA430C1A
:1009880018BF7FEA6C5C1BD001B050EA410C0CBF69
:1009980052EA430C91EA030F02BF90EA020F0020CB
:1009A800704710F1000F91EA030F58BF994208BF32
:1009B80090422CBFD8176FEAE37040F001007047EF
:1009C8004FEA410C7FEA6C5C02D150EA013C07D146
:1009D8004FEA430C7FEA6C5CD6D152EA033CD3D091
:1009E8005DF8040B704700BF8446104662468C468B
:1009F8001946634600E000BF01B5FFF7B7FF0028BE
:100A080048BF10F1000F01BD4DF808EDFFF7F4FFE6
:100A18000CBF012000205DF808FB00BF4DF808ED71
:100A2800FFF7EAFF34BF012000205DF808FB00BF94
:100A38004DF808EDFFF7E0FF94BF012000205DF8B6
:100A480008FB00BF4DF808EDFFF7CEFF94BF01206B
:100A580000205DF808FB00BF4DF808EDFFF7C4FF64
:100A680034BF012000205DF808FB00BF4FEA4102B7
:100A780012F5001215D211D56FF47873B3EB6252E8
:100A880012D94FEAC12343F0004343EA505311F00F
:100A9800004F23FA02F018BF404270474FF00000A1
:100AA800704750EA013005D111F0004008BF6FF0DF
:100AB800004070474FF00000704700BF4A0011D255
:100AC80012F5001211D20DD56FF47873B3EB6252A0
:100AD8000ED44FEAC12343F0004343EA505323FAAC
:100AE80002F070474FF00000704750EA013002D121
:100AF8004FF0FF3070474FF00000704780F0004023
:100B080002E000BF81F0004142001FBF5FEA4103DD
:100B180092EA030F7FEA226C7FEA236C6AD04FEADD
:100B28001262D2EB1363C1BFD21841404840414022
:100B3800B8BF5B42192B88BF704710F0004F40F4D4
:100B4800000020F07F4018BF404211F0004F41F4F0
:100B5800000121F07F4118BF494292EA030F3FD0BC
:100B6800A2F1010241FA03FC10EB0C00C3F12003CF
:100B780001FA03F100F0004302D5494260EB40005E
:100B8800B0F5000F13D3B0F1807F06D340084FEAC9
:100B9800310102F10102FE2A51D2B1F1004F40EBBE
:100BA800C25008BF20F0010040EA03007047490026
:100BB80040EB0000013A28BFB0F5000FEDD2B0FAC3
:100BC80080FCACF1080CB2EB0C0200FA0CF0AABFE6
:100BD80000EBC25052421843BCBFD0401843704784
:100BE80092F0000F81F4000106BF80F4000001328A
:100BF800013BB5E74FEA41037FEA226C18BF7FEA61
:100C0800236C21D092EA030F04D092F0000F08BFA2
:100C18000846704790EA010F1CBF0020704712F089
:100C28007F4F04D1400028BF40F00040704712F1C8
:100C380000723CBF00F50000704700F0004343F02D
:100C4800FE4040F4000070477FEA226216BF084663
:100C58007FEA23630146420206BF5FEA412390EA26
:100C6800010F40F4800070474FF0000304E000BF1C
:100C780010F0004348BF40425FEA000C08BF7047CD
:100C880043F0964301464FF000001CE050EA010291
:100C980008BF70474FF000030AE000BF50EA0102A6
:100CA80008BF704711F0004302D5404261EB410193
:100CB8005FEA010C02BF84460146002043F0B643B8
:100CC80008BFA3F18053A3F50003BCFA8CF2083ADD
:100CD800A3EBC25310DB01FA02FC634400FA02FCE6
:100CE800C2F12002BCF1004F20FA02F243EB0200ED
:100CF80008BF20F00100704702F1200201FA02FC4F
:100D0800C2F1200250EA4C0021FA02F243EB020041
:100D180008BF20EADC7070474FF0FF0C1CEAD05285
:100D28001EBF1CEAD15392EA0C0F93EA0C0F6FD046
:100D38001A4480EA010C400218BF5FEA41211ED024
:100D48004FF0006343EA501043EA5111A0FB013110
:100D58000CF00040B1F5000F3EBF490041EAD371E5
:100D68005B0040EA010062F17F02FD2A1DD8B3F161
:100D7800004F40EBC25008BF20F00100704790F0D0
:100D8800000F0CF0004C08BF49024CEA502040EA22
:100D980051207F3AC2BFD2F1FF0340EAC2507047E8
:100DA80040F400004FF00003013A5DDC12F1190F26
:100DB800DCBF00F000407047C2F10002410021FA98
:100DC80002F1C2F1200200FA02FC5FEA310040F1B0
:100DD800000053EA4C0308BF20EADC70704792F029
:100DE800000F00F0004C02BF400010F4000F013A61
:100DF800F9D040EA0C0093F0000F01F0004C02BF5C
:100E0800490011F4000F013BF9D041EA0C018FE7CA
:100E18000CEAD15392EA0C0F18BF93EA0C0F0AD0D0
:100E280030F0004C18BF31F0004CD8D180EA0100F6
:100E380000F00040704790F0000F17BF90F0004F8F
:100E4800084691F0000F91F0004F14D092EA0C0F71
:100E580001D142020FD193EA0C0F03D14B0218BF04
:100E6800084608D180EA010000F0004040F0FE404A
:100E780040F40000704740F0FE4040F440007047E6
:100E88004FF0FF0C1CEAD0521EBF1CEAD15392EA65
:100E98000C0F93EA0C0F69D0A2EB030280EA010C55
:100EA80049024FEA402037D04FF0805343EA1111EE
:100EB80043EA10130CF000408B4238BF5B0042F14C
:100EC8007D024FF4000C8B4224BF5B1A40EA0C00F1
:100ED800B3EB510F24BFA3EB510340EA5C00B3EB23
:100EE800910F24BFA3EB910340EA9C00B3EBD10F11
:100EF80024BFA3EBD10340EADC001B0118BF5FEA63
:100F08001C1CE0D1FD2A3FF650AF8B4240EBC2508B
:100F180008BF20F0010070470CF0004C4CEA50204C
:100F28007F32C2BFD2F1FF0340EAC250704740F49B
:100F380000004FF00003013A37E792F0000F00F08D
:100F4800004C02BF400010F4000F013AF9D040EA0B
:100F58000C0093F0000F01F0004C02BF490011F49F
:100F6800000F013BF9D041EA0C0195E70CEAD15397
:100F780092EA0C0F08D142027FF47DAF93EA0C0F7E
:100F88007FF470AF084676E793EA0C0F04D14B0262
:100F98003FF44CAF08466EE730F0004C18BF31F014
:100FA800004CCAD130F000427FF45CAF31F000430E
:100FB8007FF43CAF5FE700BF42000ED2B2F1FE4FB4
:100FC8000BD34FF09E03B3EB126209D44FEA002310
:100FD80043F0004323FA02F070474FF000007047D7
:100FE80012F1610F01D1420202D14FF0FF30704778
:100FF8004FF00000704700BF02224FF4784170B5EF
:101008001B4B82B010460091019301211F2305F06C
:1010180083FC4FF47A7008F033FA0123032200218D
:101028006324CDE90023134D134A29701170134D21
:10103800134A296011601348134D144A017029603E
:1010480013701348134A144D016014702C70134820
:10105800134B144A144D154E01701C701470084639
:10106800402380222C70347004F0FAFF02B070BD67
:1010780098D50008A8000020C2000020B000002079
:10108800BC000020C1000020B4000020080000209F
:10109800B80000200400002001000020C300002048
:1010A80002000020030000200500002006000020A8
:1010B8002DE9F04182B005F023F90A2405214FF605
:1010C800FF7307464C4D08460093662207232C7091
:1010D80005F06EFE41F2452306213C464FF000081C
:1010E80006260093084605233AB206F0D1FA2B7873
:1010F8000A2B11D106F0BCFE0138062853D8DFE8C8
:1011080000F0040452523F543700002006F0BCFEA1
:10111800384605F0FBF82E700123032200216324D2
:10112800CDE90023354D364A29701170354D364AC0
:10113800296011603548364D364A017029601370B0
:101148003548364A364D016014702C703548364E95
:10115800364B374A374D01701C70147008464023CF
:10116800802234702C7004F07BFF02B0BDE8F0815F
:10117800002006F089FE2146142006F037FF2E7065
:10118800002006F081FE601D00230522062100B222
:1011980005F044FF012C1AD9013CE4B2642C16D0A6
:1011A800204605F0B3F82B78A2E7002006F06CFE85
:1011B800632C17D80134E4B2012C13D0601D41F21E
:1011C80045230522062100B205F028FFE8E741F291
:1011D80045230621009308460523642206F058FAA1
:1011E8006424DDE70523632206210720CDF800806B
:1011F80006F04EFA0124D3E700000020A8000020E2
:10120800C2000020B0000020BC000020C100002067
:10121800B400002008000020B800002004000020CE
:1012280001000020C300002006000020020000206A
:1012380003000020050000202DE9F04F07264FF499
:101248007A7591B0974B0CAC0FCB07C423804FF63F
:10125800FF7408270AABCDE901650022D02100936D
:101268009148012307F048FF9DF82A209DF82E0099
:10127800130903EB830102F00F0303EB41039DF80D
:101288002C20DBB24FEA101E9DF82D504FEA131C9C
:1012980000F00F000EEB8E0E00EB4E0E9DF829802D
:1012A8000CEB8C0C029310098DF8283003F00F0317
:1012B8009DF82B1003EB4C0302F00F024FEA151CAC
:1012C80000EB800002EB400005F00F054FEA181212
:1012D8000CEB8C0C05EB4C0C02EB8209734D08F0FF
:1012E8000F024FEA1118DFF8FCB102EB49028DF842
:1012F8002E3008EB880801F00F0303EB48088DF83F
:101308002A00232304208DF829208DF82F100A2283
:101318000221009401958DF82CE08DF82BC08BF8F4
:1013280000708DF82D8005F0F7FA614B3A22022102
:101338000420CDE90043232305F0EEFA9DF8293077
:101348004822022104200293CDE90045232305F019
:10135800E3FA9DF82A30574F3246012104200293C0
:10136800CDE900453B2305F0D7FA3B231F22012195
:101378000420CDE9004705F0CFFA9DF82B3027224D
:10138800012104200293CDE900453B2305F0C4FA6E
:101398003B233F2201210420CDE9004705F0BCFA98
:1013A800454E9DF82C30472201210420CDE90163E8
:1013B80000943B2305F0B0FA01239DF82D203F4906
:1013C8003F4F51F8222000201946029200943C22F7
:1013D800019705F0A1FA9BF80030082B40F0E08255
:1013E8000024A146CDE90856DFF8FCA0079706F0CF
:1013F8003FFD431E0546062B0ED8DFE813F0070015
:1014080007008E0165013E0117018300002006F0E8
:101418003BFD06238BF8003008F02CF8A0EB090000
:10142800FA2840F2FD809BF80030082B00F09E81DE
:10143800002101224FF003086324DFF8B0E0DFF851
:10144800B0C0204F204E214DCDE9008220488EF8B3
:1014580000108CF80010397031602960DFF894E0D2
:10146800DFF894C01B4BDFF89490DFF894801A4F94
:101478001A4E1B4D0160196089F800200846402368
:10148800802288F800408EF800408CF800403C70BC
:1014980034702C708AF8001004F0E2FD11B0BDE839
:1014A800F08F00BF78D50008EC6D0020ACD500089F
:1014B800C0D50008C4D50008B4D5000834D7000842
:1014C800BCD50008C2000020B0000020B8000020F1
:1014D800BC000020B400002002000020030000200F
:1014E8000500002000000020C3000020A800002004
:1014F800C100002004000020010000200800002096
:10150800060000204FF47A770726002006F0BCFC7E
:10151800CA4B9DF82B209DF828100AAD0691A3FB15
:101528000201C80800EB8000A2EB4002C90842EAA9
:101538000112D2B2A3FB020C9DF82C109DF82900D1
:10154800059104904FEADC01009501EB8101049DAF
:101558004FEADC0CA2EB41019DF82A0041EA0C118C
:10156800A3FB05CE059D9DF82D8002970196A3FB50
:10157800057CA3FB0067069E8DF82D20A3FB06566D
:101588004FEADE02A3FB0853049D02EB82024FEAF6
:10159800DE0EA5EB420242EA0E128DF828108DF8F5
:1015A800292005994FEADC0202EB8202A1EB4205F1
:1015B8004FEADC0C45EA0C158DF82E504FF0060565
:1015C800FA0802EB8202A0EB4200FF08069940EA03
:1015D8000710F208DF0802EB820207EB8707A1EB8E
:1015E8004202DB08F608A8EB4707D02142EA0616B4
:1015F80047EA0317002201238DF82C0090488DF844
:101608002F808DF82A608DF82B708BF8005007F02A
:10161800C1FC07F02FFFA0EB0900FA283FF603AF43
:101628009BF80030082B3FF4E2AE01E7002006F0FB
:101638002BFC9AF80030D3B1052C00F06781012CFF
:1016480000F37E81022110AB03EB440313F8102C46
:1016580013F80F3C089F042010AD254415F8185CBA
:101668004FF6FF76CDE90175009605F055F9052C82
:1016780000F0A980013464B2CEE6002006F004FC34
:101688009AF80030D3B1052C00F04D81012C00F3FD
:101698006381022110AB03EB440313F8102C13F8F9
:1016A8000F3C089F042010AD254415F8185C4FF630
:1016B800FF76CDE90175009605F02EF9002C00F0B3
:1016C8008480013C64B2A7E6002006F0DDFB9AF8AE
:1016D8000030CBB9052C00F00C81012C00F34881B7
:1016E800022110AB03EB440313F8102C13F80F3C42
:1016F800089F10A8204410F8180C0026CDE90170A6
:101708000096284605F008F9631E042B00F2638151
:10171800DFE803F0818A9ABFAC00002006F0B4FB32
:101728009AF80000C8B9052C00F0D780012C00F306
:101738002B81022110AB03EB440313F8102C13F890
:101748000F3C089F042010AD254415F8185C0026AE
:10175800CDE90175009605F0DFF8631E042B00F251
:101768004181DFE803F08D7AA89FB10007F082FE7F
:101778009AF80030052CB3FA83F24FEA52128146E8
:101788008AF8002035D0012C21DC1D1E18BF012548
:10179800022110AB03EB440313F8102C6D4213F82D
:1017A8000F3CADB2089F042010AE264416F8186C02
:1017B800CDE90176009505F0AFF89BF80030082BCD
:1017C8003FF415AE34E6002426E6052424E61D1E63
:1017D80018BF012510AB03EB44036D42042C13F82A
:1017E800102C4FF0010113F80F3CADB2DAD1099F6C
:1017F800D9E71D1E18BF01259DF82D30114A6D42ED
:1018080052F82360012100209DF83A209DF83B30D2
:10181800079FADB2CCE79DF82930002B40F0C3807C
:101828003B238DF82930F7E59DF82A30002B40F04E
:10183800BE801F238DF82A30EEE500BFCDCCCCCC7E
:10184800EC6D002034D700089DF82B30002B40F0B9
:10185800B2800C238DF82B30DEE59DF82A301E2B44
:101868008CBF012301338DF82A30D5E59DF82D3042
:10187800012B0CBF072303F1FF338DF82D30CBE587
:101888009DF829303A2B8CBF002301338DF829307D
:10189800C2E59DF82C30002B40F0918063238DF831
:1018A8002C30B9E59DF82C30622B8CBF0023013316
:1018B8008DF82C30B0E59DF82B300B2B8CBF012315
:1018C80001338DF82B30A7E59DF82D30062B8CBF02
:1018D800012301338DF82D309EE59DF82D304A49BE
:1018E8009DF83A2051F82350079F01219DF83B307D
:1018F8002DE79DF82D201D46434B012153F822006A
:10190800079F9DF83A209DF83B30F6E69DF82D306C
:101918003D49002051F823509DF83A2001219DF8B7
:101928003B30079F9CE69DF82D303749002051F841
:1019380023509DF83A2001219DF83B30079FB6E6D9
:1019480010AB03EB4403042C13F8102C13F80F3CD2
:1019580039D10121099F7EE610AB03EB4403042C27
:1019680013F8102C13F80F3C33D10121099F99E685
:1019780010AB03EB4403042C13F8102C13F80F3CA2
:1019880025D10121099FB4E610AB03EB4403042CD5
:1019980013F8102C13F80F3C17D10121099FD1E639
:1019A800DFF868A044E5013B8DF8293034E5013BB8
:1019B8008DF82A3030E5013B8DF82B302CE5013BC2
:1019C8008DF82C3028E5012144E60121B9E60121F2
:1019D8008EE6012165E69DF828405CB917238DF84D
:1019E800283019E59DF82830162B08D900248DF8E1
:1019F800284011E5013C8DF8284000240CE501330E
:101A080000248DF8283007E534D70008C3000020EB
:101A180002224FF4784170B51B4B82B010460091FA
:101A2800019301211F2304F077FF4FF47A7007F028
:101A380027FD0123032200216324CDE90023134D50
:101A4800134A29701170134D134A29601160134805
:101A5800134D144A0170296013701348134A144D2A
:101A6800016014702C701348134B144A144D154E12
:101A780001701C7014700846402380222C7034704A
:101A880004F0EEFA02B070BD98D50008A800002056
:101A9800C2000020B0000020BC000020C1000020CF
:101AA800B400002008000020B80000200400002036
:101AB80001000020C30000200200002003000020D5
:101AC800050000200600002002224FF4784170B57E
:101AD8001B4B82B010460091019301211F2304F093
:101AE8001BFF4FF47A7007F0CBFC0123032200217F
:101AF8006324CDE90023134D134A29701170134D47
:101B0800134A296011601348134D144A0170296063
:101B180013701348134A144D016014702C70134845
:101B2800134B144A144D154E01701C70147008465E
:101B3800402380222C70347004F092FA02B070BDF9
:101B480098D50008A8000020C2000020B00000209E
:101B5800BC000020C1000020B400002008000020C4
:101B6800B80000200400002001000020C30000206D
:101B780002000020030000200500002006000020CD
:101B880002224FF4784170B51B4B82B01046009189
:101B9800019301211F2304F0BFFE4FF47A7007F070
:101BA8006FFC0123032200216324CDE90023134D98
:101BB800134A29701170134D134A29601160134894
:101BC800134D144A0170296013701348134A144DB9
:101BD800016014702C701348134B144A144D154EA1
:101BE80001701C7014700846402380222C703470D9
:101BF80004F036FA02B070BD98D50008A80000209D
:101C0800C2000020B0000020BC000020C10000205D
:101C1800B400002008000020B800002004000020C4
:101C280001000020C3000020020000200300002063
:101C3800050000200600002002224FF4784170B50C
:101C48001B4B82B010460091019301211F2304F021
:101C580063FE4FF47A7007F013FC0123032200217E
:101C68006324CDE90023134D134A29701170134DD5
:101C7800134A296011601348134D144A01702960F2
:101C880013701348134A144D016014702C701348D4
:101C9800134B144A144D154E01701C7014700846ED
:101CA800402380222C70347004F0DAF902B070BD41
:101CB80098D50008A8000020C2000020B00000202D
:101CC800BC000020C1000020B40000200800002053
:101CD800B80000200400002001000020C3000020FC
:101CE800020000200300002005000020060000205C
:101CF80002224FF4784170B51B4B82B01046009118
:101D0800019301211F2304F007FE4FF47A7007F0B6
:101D1800B7FB0123032200216324CDE90023134DDF
:101D2800134A29701170134D134A29601160134822
:101D3800134D144A0170296013701348134A144D47
:101D4800016014702C701348134B144A144D154E2F
:101D580001701C7014700846402380222C70347067
:101D680004F07EF902B070BD98D50008A8000020E4
:101D7800C2000020B0000020BC000020C1000020EC
:101D8800B400002008000020B80000200400002053
:101D980001000020C30000200200002003000020F2
:101DA80005000020060000204FF47A720723F0B5E2
:101DB8002C4C85B0CDE90132009401230022D021BA
:101DC800294807F099F90126237865781F092748DB
:101DD80003F00F0307EB870703EB47070770280992
:101DE80094F802C000EB800005F00F0505EB4005F4
:101DF8001F4894F803E021796279A3794FEA1C140B
:101E0800057004EB84001B4D0CF00F0404EB400438
:101E18002C700C094FEA1E1004EB840401F00F012A
:101E280001EB4401144D0EF00F0E140900EB800075
:101E38000EEB400004EB840402F00F0202EB4402B4
:101E480028701C090D4804EB840403F00F0301708B
:101E580003EB44030A480B4C0B49227003700E70C5
:101E680005B0F0BD446E0020EC6D0020426E0020ED
:101E7800406E0020EB800020F0800020E0800020F1
:101E8800416E0020E86D00200700002000000000DF
:101E98002DE9F04FAF4B8BB00AAD0FCB012405E90C
:101EA8000F0003230021CDE90034AB4D08462E78FE
:101EB80040238022059604F0D3F8062000226321EF
:101EC80023462870A548DFF8F0B20470A448CDE98D
:101ED80002220270A34804920270A348CBF80020A3
:101EE8000270A2480260A2480260A2480260A248AA
:101EF8000270A24A1170A24A1170A24A1170A24A35
:101F08001170A24A1170A24A1170002B40F0C980CA
:101F180005F0AEFF0138062815D8DFE800F067891C
:101F28007A5704049400002005F0AEFF049B002BB0
:101F380040F03E829DF80830042B34BF0422FC2276
:101F480013445BB2029307F095FA039BC01A9628D4
:101F580004D9814B1B78062B00F0018207F08AFA1E
:101F6800DBF80030C01A322840F291807A4B1B7897
:101F7800062B7BD000210125032363247C4ECDE969
:101F8800003531607B4E764B31607B4E1970317075
:101F9800724E744B3570794D19702C70784D724BA8
:101FA8002C70784D714A2C70774D19702C70774DC4
:101FB80011602C70764D0846402380222C70CBF897
:101FC800001004F04DF80BB0BDE8F08F002005F0CC
:101FD8005BFF049B002B40F0DE819DF80830062B48
:101FE80000F2D68101335BB20293ACE7002005F022
:101FF8004BFF049B002BA6D0029B0AAA02EB4303CB
:1020080013F80F1C13F8100C0022042302F010FE22
:1020180099E7002005F038FF049B002B40F0E2818F
:10202800029B002B00F0B181013B5BB202938AE76F
:10203800002005F029FF049B002B40F0C681464B89
:10204800059A1A707FE7002005F01EFF0021012283
:1020580003230846CDE900324023802204F000F82B
:10206800029A4C4B53F8223098476CE707F002FA73
:102078000446022380223E210020CBF8004003F0D2
:102088008BFF002102230846802203F0B7FF324B62
:102098001B78062B7FF46EAF304B1B78002B3FF478
:1020A80037AF02224FF47F4100263B4B2B4C009167
:1020B8000193104626700F23012104F02DFC45F2F0
:1020C80005540222354B1046019301211E2300942A
:1020D80004F022FC0222FF21314B104600910193AB
:1020E80001212D2304F018FC02224FF20F012D4B81
:1020F80010460091019301213B2304F00DFC4FF49D
:10210800FC62294B0121CDE9002302200F233E2246
:1021180004F002FC47F61F22244B0121CDE90023DD
:1021280002201E233E2204F0F7FB4FF47F62204B6F
:102138000121CDE9002302202D233E2204F0ECFBEF
:102148001C4B3E22CDE9004301213B23022004F031
:10215800E3FB9AE088D50008000000200800002072
:10216800A8000020C1000020C2000020B800002004
:10217800BC000020B4000020C3000020060000209E
:1021880004000020010000200200002003000020BD
:102198000500002014D70008C8D50008D4D50008C9
:1021A800E0D50008ECD50008F8D5000804D60008EA
:1021B80010D600081CD60008B000002006EB460721
:1021C800BF003FB201239622FF21384604F0DCF815
:1021D80000228046A04B20462946FDF7F7FFFEF770
:1021E8006DFC424600233E2180B204F097F801239B
:1021F8009622FF21384604F0C7F800228046974B04
:1022080020462946FDF7E2FFFEF758FC4246002328
:102218003F2180B204F082F8002220462946904BE4
:10222800FDF7D4FFBAF15F0F8046894600F2E780D8
:1022380001239622FF21384604F0A6F802464946B3
:1022480040469046FEF73AFC00234246194680B2C3
:1022580004F064F8204629460022824BFDF7B6FFB9
:1022680004460D4601239622FF21384604F08CF8D7
:102278000246294620461446FEF720FC2246002343
:10228800012180B204F04AF801363046FEF7EAF838
:102298007F2E04460D465FFA86FA8FD101239622D7
:1022A800FF2140F2F45004F06FF867A3D3E900234C
:1022B800074629462046FDF787FFFEF7FFFB3A460B
:1022C80000233E2180B204F029F801239622FF2141
:1022D80040F2F45004F058F8002207465F4B2046BD
:1022E8002946FDF773FFFEF7E9FB3A4600233F2135
:1022F80080B204F013F801239622FF2140F2F45033
:1023080004F042F800220746574B20462946FDF7BD
:102318005BFFFEF7D3FB00233A46194680B203F071
:10232800FDFF40F2F457384601239622FF2104F0BE
:102338002BF847A3D3E90023074629462046FDF793
:1023480043FFFEF7BBFB0AF1010A3A4600230121CD
:1023580080B203F0E3FF1AF0800F95D0D8E507F0BC
:1023680089F80546049B0AA983F00104029B62428E
:1023780001EB430313F80F1C13F8100C92B204235B
:10238800CDE9035402F054FCE8E507230293DAE5AB
:1023980000230293D7E5029B0AAA02EB430313F832
:1023A8000F1C13F8100C0022042302F041FC14E661
:1023B800029B0AAA02EB430313F80F1C13F8100C34
:1023C8000022042302F034FCB4E5029B0AAA02EBC3
:1023D800430313F80F1C13F8100C0022042302F017
:1023E80027FC2CE6029B0AAA02EB430313F80F1CF6
:1023F80013F8100C0022042302F01AFC10E6012343
:102408009622FF21384603F0BFFF0022164B804674
:1024180029462046FDF7D8FEFEF750FB002342462A
:10242800194680B203F07AFFBAF1600F7FF47BAFF0
:102438002046294600220B4BFDF7C8FE04460D46F0
:1024480010E700BFAFF300800000000000C05F404D
:1024580000000000002058400000F03F0000E03F6E
:102468000000404000803F4000005840234A244874
:102478001146036823F00F0343F003030360036866
:10248800136843F4803313600B689A03FCD50B6818
:102498001C4A43F400230B6048681B4B024013435B
:1024A8004B604868194A1A4B024013434B600B684B
:1024B800124A43F080730B6013689B01FCD5936844
:1024C8000E4923F0F0039360936823F4E05343F438
:1024D800A0539360936823F4604343F400439360EC
:1024E800936823F0030343F0020393608B6803F0BF
:1024F8000C03082BFAD1074805F0D2BF0038024078
:10250800003C02400080BCFF105040000080BFF03B
:1025180010504004006889092DE9F04F0024ABB041
:1025280006F082FFFFF7A2FF204606F057FFAD4BEB
:102538001C9427941D941A6B4FF4802C42F080024F
:102548001A63186B4FF4002E00F080001290129856
:10255800186B4FF4003240F004001863186B4FF406
:10256800803100F0040013901398186BDFF87C8218
:1025780040F001001863186BDFF8749200F0010056
:1025880014901498186B984D40F002001863186B5B
:10259800032600F0020015901598186B002740F0EC
:1025A80008001863186B4FF4000300F00800169039
:1025B8001698C8F81810C8F81820C8F818C0C8F82D
:1025C80018E0C9F818304FF48013C8F818304FF0E5
:1025D8008053A961AA61C5F818C0AB614FF00053D8
:1025E800AB614FF48013C5F818E0AB614FF40013EA
:1025F800AB614FF48003AB614FF40003AB614FF064
:102608008073AB614FF00073AB610123C9F81830D8
:1026180002234FF0010A4FF0010BC9F8183022A924
:102628004046CDE922ABCDE92467269405F088FE23
:102638000222012322A94046CDE92223CDE92467BD
:10264800269405F07DFE0422012322A94046CDE907
:102658002223CDE92467269405F072FE082201237F
:1026680022A94046CDE92223CDE92467269405F026
:1026780067FE22A94846CDE922ABCDE92467269416
:1026880005F05EFE0222012322A94846CDE9222355
:10269800CDE92467269405F053FE012340222693B2
:1026A800002322A94846CDE9222305F049FE01234B
:1026B80080222693012322A94846CDE92223CDE989
:1026C800246705F03DFE1022012322A94046CDE9EA
:1026D8002223CDE92467269405F032FE22A9284654
:1026E800CDE922ABCDE92467269405F029FE022224
:1026F800012322A92846CDE922234FF4805A4FF01E
:10270800010BCDE92467269405F01AFE0422012363
:1027180022A92846CDE92223CDE92467269405F08D
:102728000FFECDE922AB4FF4005A4FF0010B22A95E
:102738002846CDE92467269405F002FE22A92846FA
:10274800CDE922ABCDE924674FF4807A4FF0000B36
:10275800269405F0F5FD012322A94846CDE922ABD0
:10276800269305F0EDFD082201234FF010094FF0E4
:10277800010A22A92846CDE92223CDE92467269417
:1027880005F0DEFD22A92846CDE9229ACDE9246785
:10279800269405F0D5FD2022012322A92846CDE95B
:1027A8002223CDE92467269405F0CAFD402201239F
:1027B80022A92846CDE92223CDE92467269405F0ED
:1027C800BFFD8022012322A92846CDE92223CDE995
:1027D8002467269405F0B4FD4FF48072012322A9E2
:1027E800284607E000380240000402400008024082
:1027F80000000240CDE92223CDE92467269405F0A4
:102808009FFD4FF40072012322A92846CDE9222317
:10281800CDE92467269405F093FDC8494FF470422A
:10282800CB6892FAA2F20220B2FA82F223F4704341
:1028380000FA02F21343CB608022D8F80C0092FA17
:10284800A2F3B3FA83F303215B0001FA03F320EA4E
:10285800030392FAA2F0C8F80C30D8F8000092FAF4
:10286800A2F3B3FA83F35B0001FA03F320EA03034C
:1028780092FAA2F1C8F800304FF001031CA81C928C
:10288800ADF874308DF8763005F010FEAC4B4FF48F
:102898000006DB680025C3F30223C3F10702191DF4
:1028A800042A28BF0422062988BFDC1E4FF0FF3304
:1028B8009340DB434FF4804103F00503A340A14A52
:1028C8001B01DBB282F817339F4816609F4BA04A62
:1028D800C0E90255C0E90555C0E90755C0E900231C
:1028E800016106F083FACDE92255CDE92455994BCB
:1028F80026951A6C924942F004021A641B6C002453
:1029080003F004031193119BCB683127C3F302230F
:10291800C3F10702191D042A28BF0422062988BF0B
:10292800DD1E4FF0FF339340DB434FF080413C26E0
:1029380003F00403AB40834A874D1B01DBB282F8E6
:102948001E332846116022A9CDE924642394ADF8EA
:10295800887005F0F3FE2B68DFF80C8223F0800303
:102968002B60AB68214603EA0803AB606B68202242
:1029780023F070036B60AB6822A823F08003AB6080
:10298800CDE91744CDE919441B9408F001FA6422F3
:10299800CDE91C44CDE91E44CDE9204405F50C35AC
:1029A8002B6CDFF8C8A143F008032B642B6C17A924
:1029B80003F008030F935046CDE91924ADF85C40A5
:1029C80018940F9B05F0BAFE002360224FF0020C0A
:1029D80000260027DAF80010DFF894B121F0800112
:1029E800CAF80010DAF80810504601EA0801CAF8D7
:1029F8000810DBF80410CDE9222341F00801CBF8D8
:102A0800041022AA4FF48071CDF898C04FF0030843
:102A1800CDE924674FF0000905F0F4FE00260422F2
:102A280002270223DBF804104C4821F00401CBF8FC
:102A38000410DAF8041021F07001CAF80410DAF86A
:102A4800081021F08001CAF80810296B41F0010133
:102A58002963296BCDE91C2301F0010110911CA900
:102A6800CDE92067CDE91E89109B05F069FC40225D
:102A78000223CDE91C44CDE91E442094296C384832
:102A880041F002012964296C01F002010E910E99AE
:102A9800296B41F004012963296BCDE9266701F010
:102AA8000401179122A9CDE92223CDE92489179D94
:102AB80005F046FC224B4F20DB680025C3F30223B8
:102AC800C3F10702191D042A28BF0422062988BF5A
:102AD800DC1E4FF0FF339340DB434FF000514FF6BD
:102AE800FF7603F00203A340164A1E4C1B01DBB21B
:102AF80082F81D3311601CA9ADF870002046CDE99D
:102B08001E651D9505F01AFE2368102623F0800324
:102B18002360A368032723F4804323F00703A360FB
:102B28006368DFF8508023F070036360A36823F0C4
:102B38008003A360A36923F003031DE0003801406C
:102B480000ED00E000E100E0EC6D0020801A0600D6
:102B580000580040003802400008004000000240D1
:102B68000008024000040040F8BFFFFF000C0040CE
:102B7800180C00400010004043F00103A361A36952
:102B880023F00C03A361A36923F0F003A361236A74
:102B980023F00A0343F00203236206F0EDFD06F07A
:102BA800F9FD4FF48040CDE92655CDE91C55CDE916
:102BB8001E55CDE92455C94BC94ACA490024196094
:102BC800116C5D6041F000511164116C9D6001F061
:102BD80000510C910C99116BDD6041F001011163FA
:102BE800126B22A902F0010258610D92BE481D61C4
:102BF8009D61CDE9226726950D9A05F0A1FB20225B
:102C0800032322A9B848CDE92223269505F098FB8D
:102C1800B64B3826DB680027C3F30223C3F107024B
:102C2800191D042A28BF0422062988BFDD1E4FF07B
:102C3800FF339340DB434FF4800103F00303AB40C1
:102C4800AB4AAC4D1B01DBB282F8363328465160E3
:102C5800A9491CAACDE91C671F9407F0EDFF2B6852
:102C6800284623F004032B60A4491CAA07F0E4FFBC
:102C78002A689B4B22F480222A60CDE92244CDE9C0
:102C8800244426941A6C994942F010021A641B6C69
:102C98004FF4800003F010031C931C9BCA684FF488
:102CA800196CC2F30222C2F10703111D042B28BFBD
:102CB8000423062988BFD41E4FF0FF329A40D2431E
:102CC800002501274FF47A7602F00802A240884BCB
:102CD8001201D2B283F8362322A958604046CDE9C2
:102CE800235CADF8885005F029FDD8F800300DF1C7
:102CF8002F0423F08003C8F80030D8F804203B469E
:102D080022F07002C8F80420D8F808100E2221F02A
:102D18008001C8F808107A48D0210094CDE90176DE
:102D28008DF82F5006F0E8F99DF82F20D02122F0D9
:102D380007023B46CDE90047714842F0400402963D
:102D48000E228DF82F4006F025F9142005F048F9D9
:102D580003466C4C1320237005F042F922786A4927
:102D6800FF2A0346087001F00385FF2B01F009854F
:102D7800664B674CDA68A4F5006442F00102DA6039
:102D88001A6841F2854742F001021A605D4B614EB4
:102D9800187803F0BBFAD4F82038DFF884B143F48C
:102DA8008073C4F8203803F0ABFAC4F83C08D4F8B0
:102DB8000018594A41F00101C4F80018D1680023ED
:102DC80041F00101D1601168184641F0010111601C
:102DD800216A1A4641F001012162E16841F00201CD
:102DE800E160012125680D432560CDE9007603F0F7
:102DF80093FD4FF47A7006F043FB002003F0C2FF06
:102E080005F036F806280ED8022800F27185012848
:102E180040F0FC81002005F037F8FFF739F805F09D
:102E280027F80628F0D90838C0B2092800F2EE8140
:102E38009BF800A02C4C23695A06E1D4142005F015
:102E480019FB23695B06FCD501250726002103230E
:102E58000846CDE90035802240238BF8006003F056
:102E6800FFF84FF46F640021402308468022009445
:102E780003F09EFF234628467E22142104F0A0F882
:102E8800234629461322142004F0C8F84FF61F03DE
:102E98004FF6FF74214A2946CDE9003202200E235D
:102EA800152203F039FD4FF4784308221F210F2023
:102EB80004F004F9022309221A210B20009403F0DC
:102EC80077FF022309221E210B20009403F070FFD4
:102ED8000223092222210B2024E000BF5880002071
:102EE80000380240002C01400000024000ED00E0E4
:102EF80000E100E0007400400100100212004315D8
:102F0800EC6D0020090000200A000020001000409D
:102F1800000C004028D600080008004038D60008F9
:102F280000000020009403F043FF4FF47843082288
:102F380034210F2004F0C2F83823132230210B204B
:102F4800009404F0B5FA3823122231210B200094A2
:102F580004F0AEFA3923122231210A20009404F039
:102F6800A7FA3023132238210B20009404F0A0FA8A
:102F78002F23132238210A20009404F099FA3023D1
:102F8800142239210B20009404F092FA33230822EA
:102F980020213C2004F092F83C2522231A221946CD
:102FA800CDE9012437204122009504F0E1FB2846B1
:102FB80033230822342104F081F832233A221946B7
:102FC800CDE9005237204122029404F0D1FB33238B
:102FD80008222A212D2004F071F82A252F222723E0
:102FE80011461046CDE901540093252304F0C0FB97
:102FF8002946332308224B2004F060F84922512344
:103008001046CDE901542F210093252304F0B0FB8D
:103018004FF4784308222021692004F04FF8062253
:1030280033461D2164200194009204F0D3FC23460A
:1030380032461D216B2003F0F1FF1D236E22202153
:103048006B20009404F034FA23236E2220216B2095
:10305800009404F02DFA4FF47843082234216920B3
:1030680004F02CF806F006FA0026814606F002FA6B
:1030780037463446054604F013FFCDF824A004F083
:1030880009FF48B304F0F4FE013811280CD8DFE832
:1030980000F0BAB7B4B1AEAB740B0B0B0B0B0B0B48
:1030A8000B0B0B0904F006FF06F0E4F9A0EB09008E
:1030B80096286CD806F0DEF9401BC828DFD906F040
:1030C800D9F91123054668220221162002F0CEFE06
:1030D80004F0E0FE0028D5D11123682202210090D7
:1030E8001620DDF824A004F0D3FA4FF61F037D4A1A
:1030F8000121CDE9003202200E23152203F00CFC39
:103108000124E0B204F0BAFE014620460134A4B21C
:1031180004F06CFF092CF4D14FF47A7005F0AAF989
:1031280001240021032308468022CDE900344023EE
:1031380002F096FF632200236B498BF800A00C7005
:103148006A490A706A490A706A490A706A490A70C3
:103158006A490A706A490A706A4A13706A4A13709F
:103168006A4A13706A4A13606A4A13606A4A1360AB
:103178006A4A13606A4A137042E606F07BF9A0EBCC
:10318800090096284FF020064FF0730792D906F0F1
:1031980071F984F00103711E0793B3B2814609B235
:1031A8001FFA87F8781C0693002C40F0E583032368
:1031B8000622009404F06CFA069B08F10208023B10
:1031C8001BB238B20FFA86FA42465146009408906C
:1031D80004F06EF9069B00944246DDE9074051462B
:1031E800023304F065F965E72A2655275CE72A26A5
:1031F800372759E73526462756E71F26462753E738
:103208003426192750E71F2619274DE79BF8003069
:10321800042B15D8DFE813F04E0292002D00280089
:1032280005004FF4784302223E49CDE900311046AB
:103238001F23012103F070FB4FF4FA7006F020F908
:10324800394B1B78002B49D003F05AF8374B1A78C2
:10325800374B90421B7800F0D583142B40F2D28371
:10326800104603F053F8CBE54FF478430222314976
:10327800DBE7314B1B78002B40F06A8406F0FAF844
:10328800244B1B68C01AF82800F2368406F0F2F8BE
:103298001F4B1B68C01A5028D2D906F0EBF801233F
:1032A80004461B4D1946562229202C6002F0A6FE22
:1032B8000123532202212C2002F0A0FE01235C22CC
:1032C8003E21232002F068FE012356223D212920B9
:1032D80002F062FE144B1B78002BB5D1052004F0D8
:1032E800D3FDB1E744D600080800002006000020FE
:1032F800040000200100002002000020030000203C
:1033080005000020A8000020C1000020C200002005
:10331800B0000020B8000020BC000020B40000204D
:10332800C3000020E4D60008426E00200A000020F6
:10333800EB800020D4D6000807000020BF490B7896
:10334800002B00F069810024BD4DBE4E2A783378E9
:103358000C709A422DD007F0C9FDC0F3CF3040233E
:10336800802221460090204603F022FD2B78B64AA1
:103378000293CDE90042204667220323022103F08D
:10338800CBFA3278072A2A7000F295869300033325
:10339800DBB2C3F11F019B0143EAC1239BB2029236
:1033A800A94A0221CDE9003200200323672203F055
:1033B800B3FAA64B1B78002B40F0C285A44EA54F4C
:1033C80032783B78934264D003230025A24CA3496A
:1033D800A4FB0202DA4028460191029204211A460F
:1033E800009503F099FA32789C49A4FB0203DB08A4
:1033F80003EB8303A2EB4303DBB2CDE901131A22EB
:10340800032328460421009503F086FA3A785300EE
:10341800DBB2072B327000F27886D3000333DBB2BD
:10342800C3F11F019B0143EAC12399B203238A48D0
:103438008A4CA0FB0202DA400091029204211A464B
:103448000020019403F068FA824B1A785300DBB22B
:10345800072B00F23E86D3000333DBB2C3F11F0112
:103468009B0143EAC1239BB2DB437B499BB2A1FB8F
:103478000201C90801EB8101A2EB41020093774BDD
:10348800D2B2CDE90132042103231A22002003F02D
:1034980043FA734E734F33783A789A4260D00025D6
:1034A8006D4C6E4AA4FB0313DB08042128460192E5
:1034B800029336220323009503F02EFA3278284629
:1034C800A4FB0213DB0803EB8303A2EB4303634A69
:1034D800DBB2CDE9012304214D220323009503F03B
:1034E8001BFA3A78072A327000F2018693000333F8
:1034F800DBB2C3F11F019B0143EAC1239BB2DB434B
:1035080055499BB2A1FB02120093544BD208CDE956
:103518000132042103233622002003F0FDF9514B28
:103528001A78072A00F2B98593000333DBB2C3F196
:103538001F019B0143EAC1239BB2484846490190B9
:10354800A1FB0201C90801EB8101A2EB4102D2B241
:103558000093029203234D220421002003F0DCF99A
:10356800414B424E1B7832789A4255D00024404A4B
:1035780040481178404A37461278CDE90040CDE9F5
:1035880003212046052202210293212303F0C4F9D6
:103598003A4A3B4913783B4851F823306C22CDE92D
:1035A8000103012120461523009403F0B5F940F2E8
:1035B800FF73354D32492D78204651F825202F4C80
:1035C80030493678CDE9011200932570264C152331
:1035D8006C220121267003F09FF93A785300DBB280
:1035E800072B00F24C85D3000333DBB2C3F11F0174
:1035F8009B0143EAC1239BB22449087824490978EE
:1036080002921C4ACDE90310CDE9003202212123A0
:103618000522002003F080F905F02CFF1D4B1B68E4
:10362800C01A322800F2568205F024FF1A4B1B6894
:10363800C01A77287FF604AE30E000BF07000020EC
:1036480005000020426E002088D6000808000020EF
:1036580002000020EB800020CDCCCCCCCCD60008DA
:1036680003000020406E002001000020E0800020C0
:1036780006000020A8D6000804000020A8000020AA
:1036880034D70008BCD50008F0800020416E002027
:10369800E86D0020B0000020BC00002005F0EAFE24
:1036A8000446BE4D0E237E222F2101202C6002F0FD
:1036B800DDFBC5E540F63C4140F23E6341F6395733
:1036C80041F63A2641F23B7541F23C4040F63D1244
:1036D800002440F23F3CADF89010ADF89C10B04982
:1036E800ADF89430ADF898300B78ADF8A640ADF849
:1036F8008870ADF8A470ADF88A60ADF8A260ADF836
:103708008C50ADF8A050ADF88E00ADF89E00ADF825
:103718009220ADF89A20ADF896C0002B00F0AA8050
:10372800A04BA1481B7802780C709A4211D0037004
:1037380007F0DCFBC0F3CF3540238022214620462A
:10374800009503F035FB2B4620468022282103F004
:1037580037FC964B1B78002B40F04A84944B1A7820
:10376800944B1B789A422ED000259349934F0C789E
:10377800042005340221029203FA04F407222123CB
:103788000197009503F0C8F840F2FF73894A2401B5
:103798001678CDE90037864F21230722022104201D
:1037A800A4B202963E7003F0B7F804F5C8739BB252
:1037B800CDE90043824B37220293032124230720BB
:1037C800039502F0C1FC7F4F7B4E3B783478A342CF
:1037D80026D000250293794B492202210420CDE905
:1037E8000053212303F098F84FF6FF733678734A95
:1037F8000221CDE90032042021234922E401029666
:103808003E7003F089F804F5C873CDE900436C4BAA
:103818007D220293032124234820039502F094FC7F
:10382800694D6A4C2B7822789A4223D00020684A46
:10383800684E1178684A1278CDE90006CDE903216F
:1038480004200722012102933A2303F065F840F28D
:10385800FF71624B24781A78614B04201B78CDE9FC
:103868000016CDE9033202943A23072201212C7075
:1038780003F052F805F0FEFD5A4B1B68C01AA52844
:1038880000F2F28005F0F6FD574B1B68C01A32288B
:1038980000F2D88005F0EEFD404B1B68C01A77286F
:1038A80000F20C8105F0E6FD504B1B68C01A962803
:1038B8007FF6C6AC05F0DEFD4D494C4B0A88186012
:1038C80002F114039BB2B3F5705F80F0D183A2F5C7
:1038D800F07292B20B8000210020CDE90023029003
:1038E80003913E237E222921012002F02DFCA7E42A
:1038F800012503230021CDE9003508464023802215
:103908009BF800A09BF9006002F0AAFB6323002447
:10391800264A15702E4A13702F4A13702A4A1370BC
:10392800234A1370274A13701F4A1370314B1C70B7
:10393800314B1C70314B1C702B4B1C60294B1C608D
:10394800164B1C60294B1C602D4B1C7004F090FA20
:1039580005286AD006280BD1204604F095FA0AF10A
:1039680001035FFA83FABAF1030F28BF4FF0000A88
:103978008BF800A0FFF75EBA4FF4B86306220093F5
:10398800032303F085FE069B4FF4FE64023B08F117
:1039980002081BB238B20FFA86FA15E4BC00002000
:1039A80007000020426E00200500002008000020CB
:1039B80002000020EB800020406E002088D600081E
:1039C800CDCC4C3E0300002001000020E080002008
:1039D80006000020A8D6000804000020416E002040
:1039E800E86D0020B8000020B0000020B4000020DE
:1039F800AC000020A8000020C1000020C200002068
:103A0800C3000020052B7FF4FBA9484B1B781E2B15
:103A18007FF4F6A9464B1B78022B7FF4F1A9454B9E
:103A2800187802F073FCFFF7EBB9204604F02CFA83
:103A3800002E04DD0AF1FF335FFA83FA98E74FF0AE
:103A4800020A95E705F016FD012304463A4D19468A
:103A580018467E222C6002F0D1FA01237E221846F5
:103A6800272102F099FA15E705F004FD334B1C787D
:103A7800334B0E2C186000F05683032C02D00A2C0E
:103A880040F0C184601C0234C0B22AABE5B203EB3B
:103A9800400203EB450312F81F1C13F8202C13F8FF
:103AA8001F3C400008242AAE304410F8200CCDE911
:103AB8000044224C257000F0EDFFE3E605F0DAFC47
:103AC8000446204D14237E22292101202C6002F077
:103AD800CDF9E7E605F0CEFC01230446164D19465C
:103AE80018467E222C6002F089FA01237E221846AD
:103AF8003E2102F051FA97E5134D05F0BBFC2B78F7
:103B0800124A002B13BF4FF0FF3300230124002477
:103B18000B4E9BB2019200935B223060122301216D
:103B280004202C7002F0F8FEFFF7B0BB406E0020B6
:103B3800426E002009000020B0000020C0000020D4
:103B4800B8000020BC000020C3000020C0D5000839
:103B58001F210024C64BC74A93F9003092F9002070
:103B6800C54D08460B440A4400942C7003F0A0FC91
:103B78001F21C24BC24A93F9003092F9002008462F
:103B88000B440A44009403F093FC1F21BD4BBE4A2A
:103B980093F9003092F900200B44084600940A4437
:103BA80003F086FCB94B1B78002B40F0D382B84B4E
:103BB8001878FCF757FCB74B044618780D46FCF705
:103BC80051FC4FF0113206460F4620462946B24BAB
:103BD800FCF7B2FC02460B4630463946FCF7F6FACB
:103BE8009FA3D3E90023FCF7A7FC8046894608F089
:103BF800DBFA0022A94BFCF79FFCFCF737FF0646CF
:103C08009F4F4046494676B23E7008F077FA002248
:103C1800A34BFCF791FCFCF729FF93A3D3E90023FE
:103C280047B22046954C29462770FCF785FC044688
:103C38000D4608F0B9FA00229A4BFCF77DFCFCF718
:103C480015FF824620468B4C29464FFA8AFA84F89B
:103C580000A008F053FA0022934BFCF76DFCFCF728
:103C680005FF834945B20D7090490878FCF7FAFBC7
:103C78007DA3D3E90023FCF75FFC8046894608F062
:103C880093FA00228A4BFCF757FCFCF7EFFE044638
:103C98007D4B404649464FFA84F883F8008008F087
:103CA8002DFA0022834BFCF747FCFCF7DFFE1F21AF
:103CB8004FF4FC6C734C6B1845B2CDF800C0084645
:103CC8000AEB0102257003F0F3FB1F214FF6E070A9
:103CD8007B1872180090084603F0EAFB1F214FF684
:103CE800E0006B1808EB01020090084603F0E0FBC7
:103CF8001F214FF6FF730846012203F0DFF96E49D2
:103D0800644A0B7812789A4219D000226B4D01212F
:103D1800CDE90025042042220293142302F0FCFD81
:103D28004FF6FF735B4A01211478CDE90035624DE7
:103D380002941423422204202C7002F0EDFD604D01
:103D4800534C2B7822789A4217D000225B4E0121DF
:103D58000420CDE9002602936422142302F0DCFD3E
:103D68004FF6FF7324786422CDE9003602941423B9
:103D7800012104202C7002F0CFFD524E524B3278B4
:103D88001B789A4200F0BB8000245049504A0B78B7
:103D980012785048504FCDE90232022123234122A4
:103DA800CDE90040012002F0B7FD3B7837464FF6D9
:103DB800FF754A4A4A4952F823302046CDE9011393
:103DC80042222E230221009402F0A6FD45483378B2
:103DD8000278454ECDE90232204625234C220121A6
:103DE8000196009402F098FD374B394A18783F4EF7
:103DF8003F493678009238703E4F0A783978364F06
:103E0800324B3E7004F024F93049314A0B7812786D
:103E18003048CDE90232022123234122CDE9005066
:103E2800012002F079FD31482C4A03782C4952F8D8
:103E380023302046CDE9011342222E23022100958A
:103E480002F06AFD2B4F204B3A781B78264ECDE9BD
:103E58000232204625234C22012100954CE000BF68
:103E68009C742D3852C1E03FC6ED7BF3E9CEBA3FD2
:103E7800A7000020A600002007000020A5000020C1
:103E8800A4000020AA000020A900002008000020AB
:103E9800406E0020EB8000201111913F000024406B
:103EA800000024C000002E4000002EC0426E0020FA
:103EB80000003440000034C00200002088D600080A
:103EC8000300002001000020E0800020C100002045
:103ED800C200002080D60008A800002034D70008BF
:103EE800BCD500080400002090D60008F08000200F
:103EF800416E0020E86D0020019602F00DFD8D4E08
:103F08008D4D33782A789A423FF4B8A900248B4F14
:103F18002046029361222E230121CDE9004702F0B9
:103F2800FBFC4FF6FF732D782046CDE9003702954C
:103F38002E2361220121357002F0EEFCFFF79EB9B5
:103F480000244FF6FF754FF4FA7C7D4F7D4E0197A4
:103F5800009534707C4E2046032328220421A6F8BD
:103F680000C002F0D9FC234620465D220321CDE99A
:103F7800005702F0D1FC012404EB4405AD002DB23A
:103F880001239622FF21284602F0FEF9002302466B
:103F98000121204602F0C2F901239622FF2128467A
:103FA80002F0F2F902462046013400233E21A4B271
:103FB80002F0B4F97F2CDFD140F2FF73634A01218C
:103FC800CDE9003202203C23052202F0A5FC0023A3
:103FD80040F6FE324FF07E51CDE900320291039354
:103FE8007E223C232F21012002F0AEF8FFF7E6B92C
:103FF80000204FF6FF734FF4FA74514A544DCDE93F
:10400800003228704F4D212328704F4D392202214C
:1040180004202C8002F080FC08220C23CDE9002229
:104028000D213C223F2000F035FD012404EB44051E
:10403800AD002DB201239622FF21284602F0A4F9F3
:10404800002302460121204602F068F90123962246
:10405800FF21284602F098F9024620460134002341
:104068002721A4B202F05AF97F2CDFD1FFF776BBE3
:104078004FF4FA71344800220B4601802BE40F2BD1
:1040880000F28B8103F007039B00D91CC3F11C03CA
:1040980041EA83139BB2FFF7AFBA0F2A00F270818F
:1040A80002F007018900CB1CC1F11C0143EA81130E
:1040B8009BB2FFF742BA0F2A00F27C8102F0070197
:1040C8008900CB1CC1F11C0143EA81139BB2FFF7A5
:1040D80066B90F2B00F27C8103F007039900CB1C13
:1040E800C1F11C0143EA81139BB2FFF7BDB90F2A46
:1040F80000F27C8102F007018900CB1CC1F11C0190
:1041080043EA81139BB2FFF7FAB90F2B00F22B8118
:1041180003F007039B00D91CC3F11C0341EA831376
:1041280099B2FFF783B91A233A2201251D210020ED
:10413800B8E400BF06000020416E0020A0D60008A9
:10414800C0D5000808000020AC000020BCD600083C
:10415800C00000204FF6FF75D14E00954023202265
:1041680021462046347003F093FA4FF4FA661F2371
:104178004FF47A724FF07E51CDE9002620461A4658
:1041880002910394214601F0DFFF4FF47A63C54A98
:10419800202120460096029201931F223F23039478
:1041A80001F0D2FF1F222B461146104602F086FF6F
:1041B8001F214FF61F06084623461D2202F07EFFE8
:1041C800B94B192201212046CDE90063032302F0EF
:1041D800A3FBB64B032201212046019300961C2322
:1041E80002F09AFBB24B1D22012120460193009652
:1041F800352302F091FBAF4B372201212046019372
:1042080000961C2302F088FBAB4B2C2201210720CF
:10421800009501930C2302F07FFBA84B3222012169
:10422800072000950193152302F076FBA44B332257
:1042380001210720009501932D2302F06DFBA14B6E
:104248002A220121072000950193362302F064FBFE
:104258009D4B10220121072000950193362302F07F
:104268005BFB0722994B10460121009501932D23F2
:1042780002F052FB0722964B10460121009501934C
:10428800152302F049FB934B1022012107200095CA
:1042980001930C2302F040FB2B465D22214623208C
:1042A80002F08EFE2B4664223F211C2002F088FE7D
:1042B8002B46402221467F20254602F0AFFEACB2B5
:1042C80004EB041001239622FF2100B202F05CF8EF
:1042D800024604F1290000230121013580B202F0D1
:1042E8001DF8562DEBD12C25002401239622FF2101
:1042F80020B202F049F8002302460221284602F0C3
:104308000DF840F2D6531234A4B201359C42ADB236
:10431800EBD10025ACB2200101239622FF2100B287
:1043280002F032F8024604F1230000233E21013551
:1043380080B201F0F3FF5C2DECD10025ACB204EBA8
:10434800041001239622FF2100B202F01DF8024654
:1043580004F1290000233D21013580B201F0DEFF80
:10436800562DEBD123E4172B5ED803F007039B00EF
:10437800D91CC3F11C0343EAC12399B2FFF756B80D
:10438800172A6FD802F007039B00D91CC3F11C033E
:1043980043EAC1239BB2FFF7D0B8172B71D803F0BB
:1043A80007039B00D91CC3F11C0343EAC1239BB23A
:1043B800FFF722B9172A00F28F8002F007039B004B
:1043C800D91CC3F11C0343EAC1239BB2FEF7E7BF24
:1043D800172B00F2908003F007039B00D91CC3F150
:1043E8001C0343EAC1239BB2FFF73EB8172A2AD819
:1043F80002F007039B00D91CC3F11C0343EAC12345
:104408009BB2FFF77CB8651C2AAAEDB22AAB03EB76
:10441800450302EB440111F81F1C13F8202C60001F
:1044280013F81F3CFFF73EBB1F2B73D803F007039D
:104438009B000333990141EAC321C3F11F030B43D6
:1044480099B2FEF7F3BF1F2A7ED802F00701890050
:1044580003318B0143EAC123C1F11F010B439BB216
:10446800FFF74DB81F2A7CD802F0070189000331F5
:104478008B0143EAC123C1F11F010B439BB2FFF734
:104488005CB81F2B7AD803F007039B00033399010C
:1044980041EAC321C3F11F030B439BB2FFF7ACB83A
:1044A80008000020000080BF50D6000854D600083D
:1044B80058D600085CD6000860D6000864D6000804
:1044C80068D600086CD6000870D6000874D60008B4
:1044D80078D600087CD600081F2A5CD802F00701AD
:1044E800890003318B0143EAC123C1F11F010B434A
:1044F8009BB2FEF754BF1F2B19D803F007018900A0
:1045080003318B0143EAC123C1F11F010B439BB265
:10451800FEF7AABF272B4BD803F007039B00D91C33
:10452800C3F11C0343EA811399B2FEF77FBF272B1F
:104538005DD803F007039B00D91CC3F11C0343EAB1
:1045480081139BB2FEF790BF272A60D802F00703B9
:104558009B00D91CC3F11C0343EA81139BB2FEF7ED
:10456800CEBF272A63D802F007039B00D91CC3F1EA
:104578001C0343EA81139BB2FEF7DFBF272B66D8E3
:1045880003F007039B00D91CC3F11C0343EA811302
:104598009BB2FFF731B8272A19D802F007039B000E
:1045A800D91CC3F11C0343EA81139BB2FEF7F7BE83
:1045B8002F2B5BD803F007039B00033343EA8311D7
:1045C800C3F11F0341EAC32399B2FEF72FBF02F0DC
:1045D800070189002F2A01F1030377D843EA8313DF
:1045E800C1F11C0143EAC1239BB2FEF7D8BE2F2BB1
:1045F80000F2928003F007018900033141EA811338
:10460800C1F11F0143EAC1239BB2FEF72DBF02F09F
:1046180007012F2A4FEA810161D8033141EA81134A
:10462800C1F11F0143EAC1239BB2FEF768BF02F044
:10463800070189002F2A01F103037AD843EA83137B
:10464800C1F11C0143EAC1239BB2FEF776BF2F2BB1
:104658001AD803F007039B00D91C41EA8111C3F162
:104668001C0341EAC3239BB2FEF7C6BF372B03F0F6
:1046780007034FEA830315D8D91CC3F11C0341EA89
:10468800C32399B2FEF7D2BE372B03F007034FEAD4
:10469800830311D8D91CC3F11C0341EAC3239BB27D
:1046A800FEF7AABF033343EAC321C3F11F0341EA5C
:1046B800831399B2FEF7BABE033343EAC321C3F1A9
:1046C8001F0341EA83139BB2FEF796BF372A10D81F
:1046D800C1F11C0143EAC1239BB2FEF760BE372A31
:1046E80010D8CB1CC1F11C0143EAC1239BB2FEF7D1
:1046F80006BF43EAC323C1F11C0143EA81139BB2FD
:10470800FEF74DBE033141EAC123C1F11F0143EA5F
:1047180081139BB2FEF7F3BE372B13D803F00703C0
:104728009900CB1CC1F11C0143EAC1239BB2FEF7DF
:104738009BBE372A13D8C1F11C0143EAC1239BB29F
:10474800FEF7FBBE03F007018900033141EAC123EC
:10475800C1F11F0143EA81139BB2FEF785BE43EA0C
:10476800C323C1F11C0143EA81139BB2FEF7E5BEE6
:104778005A211420217003F039FC064B1B78FEF7F0
:10478800F4BA0A21034B1320197003F02FFCFEF72B
:10479800EFBA00BF0A00002000202DE9F041802375
:1047A8004FF480370124AF4AAF49D063AF4EB04DC4
:1047B800B0480A68013B36F812209BB202F03F026B
:1047C8006A6187610A6801320A608461002BF0D14E
:1047D8006FF001074FF0020E4FF4003CA64EDFF8D1
:1047E800B0823278A54D38F812800132C5F8288099
:1047F8006C612F61A24FC0F818E03C7865446C6189
:10480800A04DC0F818C02D789648D2B2042AC563C6
:1048180002D83270BDE8F081621CD2B21F2A337010
:1048280000F21B8110463A7042F020050022964C97
:10483800964B2D1A0A6004EB400403F5807633F892
:10484800022FB4F800C022F0380292B2CCF38710DD
:104858001CF4006F18BF42F0080210F0010F1A8014
:104868005FFA8CF11CBF42F020021A8011F0010F90
:104878001CBF42F010021A80B3F800214FEADC276F
:1048880022F0380292B217F0020F18BF42F0080265
:1048980010F0020FA3F800211CBF42F02002A3F879
:1048A800002111F0020F1CBF42F01002A3F80021F2
:1048B800B3F8002217F0040F22F0380292B218BFA2
:1048C80042F0080210F0040FA3F800221CBF42F0C7
:1048D8002002A3F8002211F0040F1CBF42F01002BE
:1048E800A3F80022B3F8002317F0080F22F03802CB
:1048F80092B218BF42F0080210F0080FA3F8002384
:104908001CBF42F02002A3F8002311F0080F1CBFBF
:1049180042F01002A3F80023B3F80024FF0622F0A7
:10492800380292B248BF42F00802C006A3F8002439
:1049380044BF42F02002A3F80024C90644BF42F055
:104948001002A3F800241A8834F815C022F00702D0
:1049580092B2CCF387101CF4006F18BF42F001022A
:1049680010F0010F1A805FFA8CF11CBF42F00202AE
:104978001A8011F0010F1CBF42F004021A80B3F82C
:1049880000214FEADC2722F0070292B217F0020F4B
:1049980018BF42F0010210F0020FA3F800211CBF5B
:1049A80042F00202A3F8002111F0020F1CBF42F0EE
:1049B8000402A3F80021B3F8002217F0040F22F034
:1049C800070292B218BF42F0010210F0040FA3F8D8
:1049D80000221CBF42F00202A3F8002211F0040FCB
:1049E8001CBF42F00402A3F80022B3F8002317F01A
:1049F800080F22F0070292B218BF42F0010210F02D
:104A0800080FA3F800231CBF42F00202A3F80023FA
:104A180011F0080F1CBF42F00402A3F80023B3F8FA
:104A28000024FF0622F0070292B248BF42F00102BA
:104A3800C006A3F8002444BF42F00202A3F80024F1
:104A4800C90644BF42F00402A3F80024B34204F1AB
:104A580080047FF4F4AEBDE8F081184620253B7051
:104A6800E4E600BF000C0040C8000020F4C00020AD
:104A78000004024000000240C4000020000800407A
:104A8800D4080020C5000020F4800020F2C00020D7
:104A9800381C01082DE9F04190429DF818709DF8E6
:104AA8001C503BD2994280F08A80ACB2A5B31FFA61
:104AB80087FC8FB300260CF1FF3C1FFA8CFE05F132
:104AC800FF3C0744013C101A01EB0C021FFA84F862
:104AD800A2EB8E12023DC40153481D4402EB87121B
:104AE8000EF1010EA5EB08074FEACE1E9C445D1A95
:104AF80000EB42000EEB000333F8801CE218803A0A
:104B080022F8151023F8806D9842F5D10CF1FF3C7E
:104B1800BC45A0F10200EDD1BDE8F0819942AEB2EA
:104B280024D2002DF8D0BCB2002FF5D06F1E394426
:104B3800651E1F443D4C01EB801307EB821004EB0C
:104B4800400004EB43020024ADB20135ED0100231F
:104B5800D15AC152D4528033AB42F9D1013EB6B2D8
:104B6800023A0238002EF2D1BDE8F081002DD3D0F0
:104B7800BCB2002FD0D0013E651EB6B22B4C0E44FD
:104B880003EB821301EB801106EB801704EB410263
:104B9800A61C04EB43000024ADB20135ED0106EB81
:104BA80047060023D15AC152D4528033AB42F9D1BF
:104BB8000232B24200F10200F3D1BDE8F081AEB298
:104BC800002DA9D0BCB2002FA6D0013CA5B2A1EB04
:104BD800851E9C460744131A0EEB8712002706F120
:104BE800FF38114C1FFA88F80135E044DE014FEA1E
:104BF800C51E04EB42040EEB0403ACEB010533F8CD
:104C0800800C9A19803A22F8150023F8807DA34277
:104C1800F5D1C44501F1010104F102040CF10103CD
:104C28003FF47AAF9C46E6E774800020F4800020C9
:104C38002DE9F04F032B8DB09346CDE9010100F02B
:104C4800DF80042B08D0012B00F0A882022B00F093
:104C58002A820DB0BDE8F08F4B1C4F1EBB421A468E
:104C6800A8BF3A46BB420493B8BF3B46A3EB020C2D
:104C780092461E460FFA8CF2CCF3C03313445B10F5
:104C8800019A05938BB206931346DFF8DCE30633EB
:104C98003FB21FFA8CFC10B2039301F10109B94528
:104CA80000F08A80B24518DC53460146059C8AB25A
:104CB8007F2A9BB205D83F2B9CBF03EB82152EF8A9
:104CC80015B0002CA5B204DA013A05EB0C0411B2B8
:104CD80024B201331BB2B342E9DD039B013000B2B9
:104CE8009842DCDB019A069B141D9D1E931DA3426E
:104CF8001E46BDF908202DB2019400F03182AA4267
:104D080040F07C83A34200F37785A64619461846EF
:104D1800DDF80480A8EB00080FFA88F0C8F3C03C5F
:104D2800844417460846DFF840934FEA6C0C1FFA94
:104D380088F87F2881B2BDB205DC3F2D9CBF05EB0A
:104D4800811029F810B0BCF1000F04DA013DC44409
:104D58002FB20FFA8CFC013108B27045E9DD0699D3
:104D680001F1020C624540F06D86A34205DD18464C
:104D7800314623460446019E01910199BA4F8E1B84
:104D880031B2C6F3C030084419464010B6B27F2984
:104D98008BB295B205DC3F2D9CBF05EB831127F83C
:104DA80011B0002803DA013D30442AB200B20133C1
:104DB80019B2A142EBDD4CE7049B4FF6FF7599450C
:104DC800B8BF01250346394600249BB27F2B8AB21F
:104DD80005D83F2A9CBF02EB83182EF818B0002C88
:104DE80003F10103B8BF51191BB2B8BF09B2984209
:104DF800EBDA039B013000B29842FFF650AF71E73F
:104E0800BDF804200299531C02F1070A07924E1EAE
:104E1800089253458AB2184636B206923BDA531CBA
:104E2800B34211461A46A8BF3246B3420493B8BFEC
:104E38003346A3EB02089C4603920FFA88F3C8F3A3
:104E4800C03213445B10884F05931FFA88F801F1AC
:104E58000109B14500F08880039B9C4517DB01469A
:104E6800059C8AB27F2A9BB205D83F2B9CBF03EBD7
:104E7800821527F815B0002CA5B204DA013A05EB23
:104E8800080411B224B201331BB26345E9DD0130D5
:104E980000B25045DDDB0799069B01988C1C9E1ECD
:104EA800A042BDF9082036B203B2039400F0F481A1
:104EB800B2427CD1A34240F33D839C4621460398ED
:104EC800DDF81CE0AEEB000ECEF3C0300FFA8EF723
:104ED800074416460846DFF890817F101FFA8EFEB9
:104EE8007F2881B2B5B205DC3F2D9CBF05EB811050
:104EF80028F810B0002F03DA013D77442EB23FB2F4
:104F0800013108B26045EBDD06980230824240F07C
:104F18001082A34206DD1946039B0798089323468F
:104F28000C460390039908984F4F0E1A31B2C6F3F6
:104F3800C030084419464010B6B27F298BB295B2EA
:104F480005DC3F2D9CBF05EB831127F811B0002825
:104F580003DA013D30442AB200B2013319B2A1424A
:104F6800EBDD0DB0BDE8F08F049B4FF6FF7599455A
:104F7800B8BF01250346314600249BB27F2B8AB275
:104F880005D83F2A9CBF02EB831E27F81EB0002CD1
:104F980003F10103B8BFA9181BB2B8BF09B2834215
:104FA800EBDD013000B25045FFF653AF73E70299CD
:104FB8000198A6EB0108A4EB0009B8F1000F89EAF3
:104FC800E97EB8BFC8F10008AEEBE97EF045B2460D
:104FD800059140F3B5824FF0FF31049101210A9108
:104FE8000221B44605907746A24626461D4610463D
:104FF8004FF6FE79099160450FDDA94601460598EF
:105008003546A0EB0A0080EAE0774E46A7EBE0774A
:1050180060468C46DDE9099104914FF6FF7AAE426D
:10502800C8BF4FF0010AF0450499DFF83C80BFB2D1
:105038001CDC80B27F281FFA85FE06D8BEF13F0F20
:105048009CBF0EEB801628F816B0CE1B31B2002993
:10505800B6B204DA0AEB0E054E442DB231B2013075
:1050680000B26045E5DD4FE7F4800020AEB27F2E48
:1050780080B205D83F289CBF00EB861E28F81EB0DA
:10508800A1EB070E0FFA8EF100291FFA8EFE05DA42
:1050980006EB0A050EEB09012DB209B2013000B288
:1050A8006045E3DD30E74E1DB1420A46A8BF3246EF
:1050B8008E42B8BF0E469146B71A019A07EBD77AC7
:1050C80002F1FF3893B24E450FFA88F51FFA81FEB8
:1050D8004FEA6A0ABFB202F1020802931CDBDFF84A
:1050E80018C350464B4629468AB27F2A9CB205D837
:1050F8003F2BDCBF04EB82132CF813B0002803DA33
:10510800013A384411B200B2013423B29E42EBDABC
:1051180001352DB24545E4DB029B019C981C0EF13C
:1051280006050EF1040184422B468E4622B20391F5
:1051380000F01F858D4240F08D83824202DD1146CA
:10514800024608468242A8BF024611B27F2992B29F
:1051580006DC3F2B04DCA84B05EB821223F812B0C7
:10516800AA420EDC0AD17F2BFAD8069B3F2BF7D830
:10517800029AA14B02EB861623F816B013462A466C
:105188001D467F2EECD8AA42A8BF2A4692B23F2AD3
:10519800E6D8994B02EB861223F812B0A1F1060C5F
:1051A800084601398C456346A8BF0B468C456746BF
:1051B800B8BF0F46A7EB030E0FFA8EF20593CEF396
:1051C800C0331344019AA1EB0C065B1002F1FF3ABD
:1051D800002E06930BB2B8BF764280B202930FFA44
:1051E8008AF302F1020A92B2DFF80C8204901FFAE5
:1051F8008EFEB6B20FFA8CFC039207E0059A97422E
:1052080080F205865D1C2BB2534520DA029A94453C
:10521800F4D1614600205D1C2CB29BB27F2B8AB270
:1052280005D83F2A9CBF02EB831928F819B0801BC8
:1052380000B2002803F10103B8BF02F1FF311BB22D
:10524800B8BF09B2A342E8D12BB25345DEDB039BBA
:1052580001999D1E049B2DB25C1FDA1FA942A3B2BF
:10526800029396B20BB200F08B81A24240F01482F6
:10527800AB4202DD1A462B461546AB42A8BF2B4669
:105288009BB27F2B3FF66CAF3F2E3FF669AF5A4A71
:1052980006EB831322F813B0B24200F3FD8040F00E
:1052A800D88502999446561A00241946002EB8BF8C
:1052B8007642514FB6B27F2988B21FFA8CF505DCC9
:1052C8003F2D9CBF05EB801127F811B0A41B24B219
:1052D800002C00F10100B8BF05F1FF3501B2B8BFDD
:1052E8000FFA85FC8B42E6DA069D0235AA4240F3A6
:1052F800FB8010464FF6FE762A464FF0FF310546F2
:1053080001353D4F2DB298B27F2892B205D83F2A79
:105318009CBF02EB801427F814B000298CB203DA82
:105328000138A11903B209B2013212B2AA42EAD174
:105338008FE4DDE90171A0EB010EA4EB070CBEF1CF
:10534800000FB8BFCEF1000EBCF1000FB8BFCCF112
:10535800000CE6450646254640F3108119462646C8
:10536800134604460A46284639466546A34200F3D2
:10537800F680012102274FF6FF769042C8BF01262A
:10538800E645ADB2DFF870E01ADC7F2B98B21FFA61
:1053980082FC06DCBCF13F0F9CBF0CEB80132EF89F
:1053A80013B04B1B19B200299BB204DA06EB0C02AE
:1053B8003B4412B219B2013003B2A342E5DD48E41E
:1053C8001FFA82FCBCF17F0F98B205D83F2BDCBFD7
:1053D80000EB8C132EF813B04B1B19B200299BB2AB
:1053E80004DAB4443B440FFA8CF219B2013003B228
:1053F800A342E5DD2DE400BFF48000200298E11A05
:10540800A5EB000ABAF1000F81EAE178B8BFCAF14A
:10541800000AA8EBE178C245A946844600F3118248
:10542800D6462746104619460393B94200F390839F
:105438004FF6FE714FF0FF3C4FF6FF79A842B8BF18
:105448004FF00109C2450493DFF868A30B461FFA21
:105458008EFE039900F3D68189B27F291FFA80F85E
:1054680006D8B8F13F0F9CBF08EB81152AF815B094
:10547800ACEB0E050FFA85FCBCF1000FADB205DAF6
:10548800C8441D440FFA88F00FFA85FC013109B2AF
:10549800B942E1DD049B62E411464FF6FE7502272E
:1054A8004FF0FF3401208E4240F3CC841846C14FA0
:1054B8001FFA80FCBCF17F0F89B205D83F299CBF39
:1054C80001EB8C1E27F81EB0002C1FFA84FE06DAAA
:1054D8000CF1FF3C0EEB05040FFA8CF024B20131FD
:1054E80009B2B142E4DDFFE61FD10299B14D541A69
:1054F8000021002CB8BF6442079EA4B298B27F284E
:1055080093B205D83F2B9CBF03EB801725F817B043
:10551800091B09B20029BCBF03F1FF331AB2431CAF
:1055280086421BB2EAD1FFF794BB3FF792AB012149
:105538000226E5E6A44619460798DDF80CE0C1E422
:10554800012104914FF0FF310A914FF6FE71474651
:10555800A446154618464FF0020909914BE51F4627
:1055680090468D1B002D0246234640463C464FF090
:10557800FF314FF6FE77B8BF6D42FCE67546F5E69B
:10558800A24240F32182964621464FF6FE784FF01C
:10559800FF371D46DFF81C92A8B27F2889B205D8CC
:1055A8003F299CBF01EB801C29F81CB0002F1FFA73
:1055B80087FC04DA01380CEB080705B23FB2013169
:1055C80009B27145E8DD0399881C01B28B4280B2AB
:1055D80000F0CD80A24200F0A682A51ACDE90724EA
:1055E80085EAE57AAAEBE57A019D4F1B002FB8BF43
:1055F8007F42BA450D4640F30C8318460891214670
:105608002C463D4613460246019803960790029899
:105618008B420FDD94461E46DDE90732DDF80CE0CB
:105628009D1A039022460B46704664463146002D6B
:10563800B8BF6D424FF6FF7E039E9442D4BF7446B6
:105648000124801B0FFA80FCC0F3C0366644BA45BB
:10565800ADB2584F4FEA66061FFA80FC00F3D481BA
:105668009BB27F2B1FFA82FE06D8BEF13F0F9CBF6C
:105678000EEB831027F810B0701B06B2002E80B214
:1056880004DA04EB0E02604412B206B201331BB214
:105698008B42E5DDFFF7DDBA0846A11A2F1A002F65
:1056A80081EAE17AB8BF7F42AAEBE17ABA45A94616
:1056B800CDE90724049740F3AE820A9002200690B1
:1056C8004FF0FF30BE4607464FF6FE70AC46114617
:1056D80025464FF0010805930990A94210DD884638
:1056E8000A990598A1EB090181EAE17EAEEBE17E1A
:1056F80029464546B846CDF814C084460998069010
:105708004FF6FF790598049F6045B8BF4FF001092F
:10571800BA4504931FFA8EFE069B05924CDC89B2AB
:105728007F291FFA80FC07D8BCF13F0F04D8214A13
:105738000CEB811722F817B0A8EB0E070FFA87F8C1
:10574800B8F1000FBFB205DACC441F440FFA8CF051
:105758000FFA87F8013109B28D42E0DADDE9043247
:105768000399881C01B28B4280B27FF43DAFA242FC
:1057780040F3FE8210464FF6FE7622464FF0FF3188
:1057880004460C4F98B27F2892B205D83F2A9CBF96
:1057980002EB801527F815B000298DB203DA01381D
:1057A800A91903B209B2013212B2A242EADDFFF727
:1057B80050BA00BFF48000201FFA80FCBCF17F0FB4
:1057C80089B206D83F2904D89D4A01EB8C1722F8E4
:1057D80017B0A8EB0E070FFA87F8B8F1000FBFB2A1
:1057E80005DACC441F440FFA8CF00FFA87F8013120
:1057F80009B28D42E0DAB1E79E4621469846019803
:10580800FFF788BA1FFA80F8B8F17F0F89B205D878
:105818003F299CBF01EB88152AF815B0ACEB0E05A3
:105828000FFA85FCBCF1000FADB205DAC8441D447F
:105838000FFA88F00FFA85FC013109B2B942E1DDAF
:1058480028E62F46C646A1469C46254618461146D8
:105858000392EAE5061B491B002E81EAE17AAAEBCE
:10586800E17AB8BF7642B2458146CDE909E50894A8
:1058780040F36D820B944FF6FE740494012427467E
:1058880002240690B446704629464FF0FF38059228
:105898000794814210DD88460B99059CA1EB09010C
:1058A80081EAE17CACEBE17C06990694059101461E
:1058B8004046B846079C0494059C4FF6FF79274656
:1058C8000794069C1FFA8CFCBC42C8BF4FF0010924
:1058D800B24540F31C823C460593A7B27F2F8EB297
:1058E80006D83F2904DC564B06EB871123F811B084
:1058F800A8EB0C010FFA81F8B8F1000F89B205DAAC
:10590800049C4F4421440FFA81F83CB2013631B26D
:105918008142E2DD0299059B881E824201B200F0B5
:105928008D8101980E460C1A002CB8BF644254456C
:10593800C0F2CE8176461F4688B28E460893039001
:10594800134631463A465046029D73450EDD94464D
:105958001F46089BA846981B0A4673466146BE46E2
:105968000028039DB8BF4042CDF80C804FF6FF7762
:10597800039E8A42B8BF0127751B0FFA85FCC5F341
:10598800C0366644544580B24FEA6606ADB280F22E
:10599800A181DFF8ACC094B27F2C9BB205D83F2B15
:1059A8009CBF03EB84112CF811B0311A0EB2002EF3
:1059B80089B203DAE219294412B20EB201331BB2DA
:1059C8007345E8DDFFF745B940F01B8119461546D8
:1059D8000027DFF86CC07F2988B21FFA85FE06DC35
:1059E800BEF13F0F9CBF0EEB80112CF811B0002FB9
:1059F80000F10100B8BF0EF1FF3E01B2B8BF0FFAC7
:105A08008EF58B42E7DADEE51FFA82FEBEF17F0FE4
:105A18009BB205D83F2B9CBF03EB8E1027F810B024
:105A2800701B06B2002E80B204DAA64460440FFA56
:105A38008EF206B201331BB28B42E5DDFFF709B9DE
:105A4800F48000200299A4EB030EACEB0108B8F136
:105A5800000FB8BFC8F10008BEF1000FB8BFCEF103
:105A6800000EF04566462546184667DD2646194667
:105A780064461346AC4602467546012002274FF09D
:105A8800FF394FF6FE7AA3420BDD174618466246E9
:105A98002346BC460446574648468D1B002DB8BFD2
:105AA8006D424FF6FF766245B8BF0126F045ADB2AC
:105AB800DFF8B4E31BDC7F2B99B21FFA82FC06DC0B
:105AC800BCF13F0F9CBF0CEB81132EF813B0431BA6
